{"address":"0xF29d91E50a36901587c428957a87da7361dCD8A7","bytecode":"0x60806040526000805560006002556000600355600060045534801561002357600080fd5b50611dbe806100336000396000f3fe60806040526004361061001e5760003560e01c8063496fef9614610023575b600080fd5b61003661003136600461149f565b610038565b005b6100406111c3565b308152600060208201819052336040830152606082018190528b518c90829061007957634e487b7160e01b600052603260045260246000fd5b6020026020010151905060008d905060008c90506000826001815181106100b057634e487b7160e01b600052603260045260246000fd5b60200260200101516001600160a01b03166370a08231336040518263ffffffff1660e01b81526004016100e391906118ac565b60206040518083038186803b1580156100fb57600080fd5b505afa15801561010f573d6000803e3d6000fd5b505050506040513d601f19601f82011682018060405250810190610133919061170e565b905060005b8251811015610f965760008e905083828151811061016657634e487b7160e01b600052603260045260246000fd5b6020026020010151600014156107da576000816004548151811061019a57634e487b7160e01b600052603260045260246000fd5b6020026020010151905060405180604001604052808f600254815181106101d157634e487b7160e01b600052603260045260246000fd5b60200260200101516001600160a01b03166001600160a01b031681526020018f60025460016102009190611cac565b8151811061021e57634e487b7160e01b600052603260045260246000fd5b60209081029190910101516001600160a01b031690526102429060019060026111ea565b508e6000548151811061026557634e487b7160e01b600052603260045260246000fd5b60200260200101516000141561049c57600160008154811061029757634e487b7160e01b600052603260045260246000fd5b6000918252602090912001546040516323b872dd60e01b81526001600160a01b03909116906323b872dd906102d4903390309086906004016118f9565b602060405180830381600087803b1580156102ee57600080fd5b505af1158015610302573d6000803e3d6000fd5b505050506040513d601f19601f8201168201806040525081019061032691906116cb565b50600160008154811061034957634e487b7160e01b600052603260045260246000fd5b60009182526020909120015460405163095ea7b360e01b81526001600160a01b039091169063095ea7b39061039890737a250d5630b4cf539739df2c5dacb4c659f2488d90859060040161191d565b602060405180830381600087803b1580156103b257600080fd5b505af11580156103c6573d6000803e3d6000fd5b505050506040513d601f19601f820116820180604052508101906103ea91906116cb565b506003546040516338ed173960e01b8152737a250d5630b4cf539739df2c5dacb4c659f2488d916338ed17399161042c91859160019033908e90600401611bd6565b600060405180830381600087803b15801561044657600080fd5b505af115801561045a573d6000803e3d6000fd5b505050506040513d6000823e601f3d908101601f19168201604052610482919081019061163b565b5060008054908061049283611cdb565b91905055506107ae565b8e600054815181106104be57634e487b7160e01b600052603260045260246000fd5b6020026020010151600114156106855760016000815481106104f057634e487b7160e01b600052603260045260246000fd5b6000918252602090912001546040516323b872dd60e01b81526001600160a01b03909116906323b872dd9061052d903390309086906004016118f9565b602060405180830381600087803b15801561054757600080fd5b505af115801561055b573d6000803e3d6000fd5b505050506040513d601f19601f8201168201806040525081019061057f91906116cb565b5060016000815481106105a257634e487b7160e01b600052603260045260246000fd5b60009182526020909120015460405163095ea7b360e01b81526001600160a01b039091169063095ea7b3906105f190737a250d5630b4cf539739df2c5dacb4c659f2488d90859060040161191d565b602060405180830381600087803b15801561060b57600080fd5b505af115801561061f573d6000803e3d6000fd5b505050506040513d601f19601f8201168201806040525081019061064391906116cb565b506003546040516318cbafe560e01b8152737a250d5630b4cf539739df2c5dacb4c659f2488d916318cbafe59161042c91859160019033908e90600401611bd6565b8e600054815181106106a757634e487b7160e01b600052603260045260246000fd5b60200260200101516002141561079657600034116106e05760405162461bcd60e51b81526004016106d790611a68565b60405180910390fd5b3481146106ff5760405162461bcd60e51b81526004016106d790611a95565b600354604051637ff36ab560e01b8152737a250d5630b4cf539739df2c5dacb4c659f2488d91637ff36ab59134916107409160019033908e90600401611ba1565b6000604051808303818588803b15801561075957600080fd5b505af115801561076d573d6000803e3d6000fd5b50505050506040513d6000823e601f3d908101601f19168201604052610482919081019061163b565b60405162461bcd60e51b81526004016106d790611ac5565b600280549060006107be83611cdb565b9091555050600480549060006107d383611cdb565b9190505550505b8382815181106107fa57634e487b7160e01b600052603260045260246000fd5b602002602001015160011415610b3f5773c02aaa39b223fe8d0a0e5c4f27ead9083c756cc26001600160a01b03168560008151811061084957634e487b7160e01b600052603260045260246000fd5b60200260200101516001600160a01b0316148015610865575081155b1561090a5773ba12222222228d8ba445958a75a0704d566bf2c86001600160a01b03166352bbbe29348e8a60008b6040518663ffffffff1660e01b81526004016108b29493929190611aed565b6020604051808303818588803b1580156108cb57600080fd5b505af11580156108df573d6000803e3d6000fd5b50505050506040513d601f19601f82011682018060405250810190610904919061170e565b50610b3f565b60008c608001359050610947604051806060016040528060278152602001611d62602791398e604001602081019061094291906116f2565b61102e565b61096d604051806060016040528060278152602001611d3b602791398e60800135611077565b61097d60608e0160408f016116f2565b6001600160a01b03166323b872dd3330846040518463ffffffff1660e01b81526004016109ac939291906118f9565b602060405180830381600087803b1580156109c657600080fd5b505af11580156109da573d6000803e3d6000fd5b505050506040513d601f19601f820116820180604052508101906109fe91906116cb565b50610a0f60608e0160408f016116f2565b6001600160a01b031663095ea7b373ba12222222228d8ba445958a75a0704d566bf2c8836040518363ffffffff1660e01b8152600401610a5092919061191d565b602060405180830381600087803b158015610a6a57600080fd5b505af1158015610a7e573d6000803e3d6000fd5b505050506040513d601f19601f82011682018060405250810190610aa291906116cb565b5073ba12222222228d8ba445958a75a0704d566bf2c86001600160a01b03166352bbbe298e8a60008b6040518563ffffffff1660e01b8152600401610aea9493929190611aed565b602060405180830381600087803b158015610b0457600080fd5b505af1158015610b18573d6000803e3d6000fd5b505050506040513d601f19601f82011682018060405250810190610b3c919061170e565b50505b838281518110610b5f57634e487b7160e01b600052603260045260246000fd5b602002602001015160021415610f835773c02aaa39b223fe8d0a0e5c4f27ead9083c756cc26001600160a01b031685600081518110610bae57634e487b7160e01b600052603260045260246000fd5b60200260200101516001600160a01b0316148015610bca575081155b15610c765773ba12222222228d8ba445958a75a0704d566bf2c86001600160a01b03166321e0ccf3348b8e8e8c8e8d6040518863ffffffff1660e01b8152600401610c1a96959493929190611936565b6000604051808303818588803b158015610c3357600080fd5b505af1158015610c47573d6000803e3d6000fd5b50505050506040513d6000823e601f3d908101601f19168201604052610c70919081019061163b565b50610f83565b89600081518110610c9757634e487b7160e01b600052603260045260246000fd5b60200260200101516001600160a01b03166323b872dd33308e600081518110610cd057634e487b7160e01b600052603260045260246000fd5b6020026020010151606001516040518463ffffffff1660e01b8152600401610cfa939291906118f9565b602060405180830381600087803b158015610d1457600080fd5b505af1158015610d28573d6000803e3d6000fd5b505050506040513d601f19601f82011682018060405250810190610d4c91906116cb565b50610da0604051806040016040528060098152602001684173736574735b305d60b81b8152508b600081518110610d9357634e487b7160e01b600052603260045260246000fd5b602002602001015161102e565b610e016040518060400160405280601381526020017218985d18da1cddd85c16cc174b985b5bdd5b9d606a1b8152508c600081518110610df057634e487b7160e01b600052603260045260246000fd5b602002602001015160600151611077565b89600081518110610e2257634e487b7160e01b600052603260045260246000fd5b60200260200101516001600160a01b031663095ea7b373ba12222222228d8ba445958a75a0704d566bf2c88d600081518110610e6e57634e487b7160e01b600052603260045260246000fd5b6020026020010151606001516040518363ffffffff1660e01b8152600401610e9792919061191d565b602060405180830381600087803b158015610eb157600080fd5b505af1158015610ec5573d6000803e3d6000fd5b505050506040513d601f19601f82011682018060405250810190610ee991906116cb565b506040516321e0ccf360e01b815273ba12222222228d8ba445958a75a0704d566bf2c8906321e0ccf390610f2b908c908f908f908d908f908e90600401611936565b600060405180830381600087803b158015610f4557600080fd5b505af1158015610f59573d6000803e3d6000fd5b505050506040513d6000823e601f3d908101601f19168201604052610f81919081019061163b565b505b5080610f8e81611cdb565b915050610138565b5061101c8f600181518110610fbb57634e487b7160e01b600052603260045260246000fd5b60200260200101518285600081518110610fe557634e487b7160e01b600052603260045260246000fd5b60200260200101518660018151811061100e57634e487b7160e01b600052603260045260246000fd5b6020026020010151336110bc565b50505050505050505050505050505050565b6110738282604051602401611044929190611a1c565b60408051601f198184030181529190526020810180516001600160e01b031663319af33360e01b1790526111a2565b5050565b611073828260405160240161108d929190611a46565b60408051601f198184030181529190526020810180516001600160e01b03166309710a9d60e41b1790526111a2565b600084836001600160a01b03166370a08231846040518263ffffffff1660e01b81526004016110eb91906118ac565b60206040518083038186803b15801561110357600080fd5b505afa158015611117573d6000803e3d6000fd5b505050506040513d601f19601f8201168201806040525081019061113b919061170e565b6111459190611cc4565b90507fd7b3ca57441764ac2d947c271990b2059ef1fa0f350eac51fcb7fdd11bfb8eb4338585898542604051611180969594939291906118c0565b60405180910390a1505060008080556002819055600381905560045550505050565b80516a636f6e736f6c652e6c6f67602083016000808483855afa5050505050565b60408051608081018252600080825260208201819052918101829052606081019190915290565b82805482825590600052602060002090810192821561123f579160200282015b8281111561123f57825182546001600160a01b0319166001600160a01b0390911617825560209092019160019091019061120a565b5061124b92915061124f565b5090565b5b8082111561124b5760008155600101611250565b600082601f830112611274578081fd5b8135602061128961128483611c3c565b611c12565b82815281810190858301838502870184018810156112a5578586fd5b855b858110156112cc5781356112ba81611d22565b845292840192908401906001016112a7565b5090979650505050505050565b600082601f8301126112e9578081fd5b813560206112f961128483611c3c565b8281528181019085830183850287018401881015611315578586fd5b855b858110156112cc57813584529284019290840190600101611317565b600082601f830112611343578081fd5b8135602061135361128483611c3c565b82815281810190858301855b858110156112cc578135880160a080601f19838d0301121561137f578889fd5b6040805182810167ffffffffffffffff82821081831117156113a3576113a3611d0c565b8184528a8601358352838601358b840152606091508186013584840152608093508386013582840152848601359450808511156113de578c8dfd5b50506113ee8d8a85870101611409565b9181019190915286525050928401929084019060010161135f565b600082601f830112611419578081fd5b813567ffffffffffffffff81111561143357611433611d0c565b611446601f8201601f1916602001611c12565b81815284602083860101111561145a578283fd5b816020850160208301379081016020019190915292915050565b80356002811061148357600080fd5b919050565b600060c08284031215611499578081fd5b50919050565b60008060008060008060008060008060006101608c8e0312156114c0578687fd5b67ffffffffffffffff808d3511156114d6578788fd5b6114e38e8e358f01611264565b9b508060208e013511156114f5578788fd5b6115058e60208f01358f016112d9565b9a508060408e01351115611517578788fd5b6115278e60408f01358f016112d9565b99508060608e01351115611539578788fd5b6115498e60608f01358f016112d9565b98508060808e0135111561155b578788fd5b61156b8e60808f01358f016112d9565b97508060a08e0135111561157d578687fd5b61158d8e60a08f01358f01611264565b96508060c08e0135111561159f578586fd5b6115af8e60c08f01358f01611488565b95508060e08e013511156115c1578485fd5b6115d18e60e08f01358f01611333565b9450806101008e013511156115e4578384fd5b6115f58e6101008f01358f01611264565b93506116046101208e01611474565b9250806101408e01351115611617578182fd5b506116298d6101408e01358e016112d9565b90509295989b509295989b9093969950565b6000602080838503121561164d578182fd5b825167ffffffffffffffff811115611663578283fd5b8301601f81018513611673578283fd5b805161168161128482611c3c565b818152838101908385018584028501860189101561169d578687fd5b8694505b838510156116bf5780518352600194909401939185019185016116a1565b50979650505050505050565b6000602082840312156116dc578081fd5b815180151581146116eb578182fd5b9392505050565b600060208284031215611703578081fd5b81356116eb81611d22565b60006020828403121561171f578081fd5b5051919050565b6000815480845260208085019450838352808320835b838110156117615781546001600160a01b03168752958201956001918201910161173c565b509495945050505050565b6000815180845260208085019450808401835b838110156117615781516001600160a01b03168752958201959082019060010161177f565b6000815180845260208085019450808401835b83811015611761578151875295820195908201906001016117b7565b60008284528282602086013780602084860101526020601f19601f85011685010190509392505050565b60008151808452815b8181101561182257602081850181015186830182015201611806565b818111156118335782602083870101525b50601f01601f19169290920160200192915050565b6001600160a01b03169052565b6002811061187357634e487b7160e01b600052602160045260246000fd5b9052565b80516001600160a01b039081168352602080830151151590840152604080830151909116908301526060908101511515910152565b6001600160a01b0391909116815260200190565b6001600160a01b03968716815294861660208601529290941660408401526060830152608082019290925260a081019190915260c00190565b6001600160a01b039384168152919092166020820152604081019190915260600190565b6001600160a01b03929092168252602082015260400190565b6000610120808301611948848b611855565b602084810192909252885190819052610140808501928281028601909101918a8201855b828110156119cf5787850361013f190186528151805186528481015185870152604080820151908701526060808201519087015260809081015160a0918701829052906119bb818801836117fd565b97860197965050509083019060010161196c565b5050505083810360408501526119e5818961176c565b9150506119f56060840187611877565b82810360e0840152611a0781866117a4565b91505082610100830152979650505050505050565b600060408252611a2f60408301856117fd565b905060018060a01b03831660208301529392505050565b600060408252611a5960408301856117fd565b90508260208301529392505050565b60208082526013908201527224b73b30b634b21022ba341030b6b7bab73a1760691b604082015260600190565b60208082526016908201527524b73b30b634b21034b7383aba1030b6b7bab73a399760511b604082015260600190565b6020808252600e908201526d34b73b30b634b21037b83a34b7b760911b604082015260600190565b600060e08252853560e0830152611b0660208701611474565b611b14610100840182611855565b506040860135611b2381611d22565b6001600160a01b03166101208301526060860135611b4081611d22565b611b4e610140840182611848565b506080860135610160830152611b6760a0870187611c60565b60c0610180850152611b7e6101a0850182846117d3565b92505050611b8f6020830186611877565b60a082019390935260c0015292915050565b600085825260806020830152611bba6080830186611726565b6001600160a01b03949094166040830152506060015292915050565b600086825285602083015260a06040830152611bf560a0830186611726565b6001600160a01b0394909416606083015250608001529392505050565b60405181810167ffffffffffffffff81118282101715611c3457611c34611d0c565b604052919050565b600067ffffffffffffffff821115611c5657611c56611d0c565b5060209081020190565b6000808335601e19843603018112611c76578283fd5b830160208101925035905067ffffffffffffffff811115611c9657600080fd5b803603831315611ca557600080fd5b9250929050565b60008219821115611cbf57611cbf611cf6565b500190565b600082821015611cd657611cd6611cf6565b500390565b6000600019821415611cef57611cef611cf6565b5060010190565b634e487b7160e01b600052601160045260246000fd5b634e487b7160e01b600052604160045260246000fd5b6001600160a01b0381168114611d3757600080fd5b5056fe73696e676c65737761702e616d6f756e742a2a2a2a2a2a2a2a2a2a2a2a2a2a2a2a2a2a2a2a2a2a73696e676c65737761702e6173736574496e2a2a2a2a2a2a2a2a2a2a2a2a2a2a2a2a2a2a2a2a2aa2646970667358221220836ffa30f6ff946effd8ab9a7cd65e8e85f32838a1eb87fc0e771b9cf49c0d4364736f6c63430008000033","abi":[{"anonymous":false,"inputs":[{"indexed":false,"internalType":"address","name":"sender","type":"address"},{"indexed":false,"internalType":"address","name":"tokenIn","type":"address"},{"indexed":false,"internalType":"address","name":"tokenOut","type":"address"},{"indexed":false,"internalType":"uint256","name":"tokenInAmount","type":"uint256"},{"indexed":false,"internalType":"uint256","name":"tokenOutAmount","type":"uint256"},{"indexed":false,"internalType":"uint256","name":"timeStamp","type":"uint256"}],"name":"BeeSwap","type":"event"},{"inputs":[{"internalType":"address[]","name":"Tokens_In_Out","type":"address[]"},{"internalType":"uint256[]","name":"deadline_amountIn","type":"uint256[]"},{"internalType":"uint256[]","name":"DexRoute","type":"uint256[]"},{"internalType":"uint256[]","name":"Uniswap_amountIn","type":"uint256[]"},{"internalType":"int256[]","name":"options","type":"int256[]"},{"internalType":"address[]","name":"path","type":"address[]"},{"components":[{"internalType":"bytes32","name":"poolId","type":"bytes32"},{"internalType":"enum Ibal.SwapKind","name":"kind","type":"uint8"},{"internalType":"contract IAsset","name":"assetIn","type":"address"},{"internalType":"contract IAsset","name":"assetOut","type":"address"},{"internalType":"uint256","name":"amount","type":"uint256"},{"internalType":"bytes","name":"userData","type":"bytes"}],"internalType":"struct Ibal.SingleSwap","name":"singleswap","type":"tuple"},{"components":[{"internalType":"bytes32","name":"poolId","type":"bytes32"},{"internalType":"uint256","name":"assetInIndex","type":"uint256"},{"internalType":"uint256","name":"assetOutIndex","type":"uint256"},{"internalType":"uint256","name":"amount","type":"uint256"},{"internalType":"bytes","name":"userData","type":"bytes"}],"internalType":"struct Ibal.BatchSwapStep[]","name":"batchswap","type":"tuple[]"},{"internalType":"contract IAsset[]","name":"assets","type":"address[]"},{"internalType":"enum Ibal.SwapKind","name":"kind","type":"uint8"},{"internalType":"uint256[]","name":"limits","type":"uint256[]"}],"name":"dex","outputs":[],"stateMutability":"payable","type":"function"}]}