{
  "_format": "hh-sol-artifact-1",
  "contractName": "swap",
  "sourceName": "contracts/swap.sol",
  "abi": [
    {
      "anonymous": false,
      "inputs": [
        {
          "indexed": false,
          "internalType": "address",
          "name": "sender",
          "type": "address"
        },
        {
          "indexed": false,
          "internalType": "address",
          "name": "tokenIn",
          "type": "address"
        },
        {
          "indexed": false,
          "internalType": "address",
          "name": "tokenOut",
          "type": "address"
        },
        {
          "indexed": false,
          "internalType": "uint256",
          "name": "tokenInAmount",
          "type": "uint256"
        },
        {
          "indexed": false,
          "internalType": "uint256",
          "name": "tokenOutAmount",
          "type": "uint256"
        },
        {
          "indexed": false,
          "internalType": "uint256",
          "name": "timeStamp",
          "type": "uint256"
        }
      ],
      "name": "BeeSwap",
      "type": "event"
    },
    {
      "inputs": [
        {
          "internalType": "address[]",
          "name": "tokenInOut",
          "type": "address[]"
        },
        {
          "internalType": "uint256[]",
          "name": "dexRoute",
          "type": "uint256[]"
        },
        {
          "internalType": "uint256[]",
          "name": "uniswapAmountIn",
          "type": "uint256[]"
        },
        {
          "internalType": "int256[]",
          "name": "options",
          "type": "int256[]"
        },
        {
          "internalType": "address[]",
          "name": "path",
          "type": "address[]"
        },
        {
          "components": [
            {
              "internalType": "bytes32",
              "name": "poolId",
              "type": "bytes32"
            },
            {
              "internalType": "enum Ibal.SwapKind",
              "name": "kind",
              "type": "uint8"
            },
            {
              "internalType": "contract IAsset",
              "name": "assetIn",
              "type": "address"
            },
            {
              "internalType": "contract IAsset",
              "name": "assetOut",
              "type": "address"
            },
            {
              "internalType": "uint256",
              "name": "amount",
              "type": "uint256"
            },
            {
              "internalType": "bytes",
              "name": "userData",
              "type": "bytes"
            }
          ],
          "internalType": "struct Ibal.SingleSwap",
          "name": "singleswap",
          "type": "tuple"
        },
        {
          "internalType": "uint256",
          "name": "limit",
          "type": "uint256"
        },
        {
          "components": [
            {
              "internalType": "bytes32",
              "name": "poolId",
              "type": "bytes32"
            },
            {
              "internalType": "uint256",
              "name": "assetInIndex",
              "type": "uint256"
            },
            {
              "internalType": "uint256",
              "name": "assetOutIndex",
              "type": "uint256"
            },
            {
              "internalType": "uint256",
              "name": "amount",
              "type": "uint256"
            },
            {
              "internalType": "bytes",
              "name": "userData",
              "type": "bytes"
            }
          ],
          "internalType": "struct Ibal.BatchSwapStep[]",
          "name": "swaps",
          "type": "tuple[]"
        },
        {
          "internalType": "contract IAsset[]",
          "name": "assets",
          "type": "address[]"
        },
        {
          "internalType": "enum Ibal.SwapKind",
          "name": "kind",
          "type": "uint8"
        },
        {
          "internalType": "int256[]",
          "name": "limits",
          "type": "int256[]"
        },
        {
          "internalType": "uint256",
          "name": "deadline",
          "type": "uint256"
        }
      ],
      "name": "dex",
      "outputs": [],
      "stateMutability": "payable",
      "type": "function"
    }
  ],
  "bytecode": "0x608060405260008055600060025560006003556000600455600060055534801561002857600080fd5b50611cc8806100386000396000f3fe60806040526004361061001e5760003560e01c80637393b95314610023575b600080fd5b6100366100313660046114eb565b610038565b005b610040611173565b308152600060208201819052336040830181905260608301829052600680546001600160a01b03191690911790558d518e90600190811061009157634e487b7160e01b600052603260045260246000fd5b6020026020010151905060008e6000815181106100be57634e487b7160e01b600052603260045260246000fd5b60200260200101519050600073c02aaa39b223fe8d0a0e5c4f27ead9083c756cc26001600160a01b0316836001600160a01b031614610180576006546040516370a0823160e01b81526001600160a01b03858116926370a082319261012992909116906004016118c7565b60206040518083038186803b15801561014157600080fd5b505afa158015610155573d6000803e3d6000fd5b505050506040513d601f19601f820116820180604052508101906101799190611760565b9050610184565b5033315b60005b8f51811015610edc578f81815181106101b057634e487b7160e01b600052603260045260246000fd5b6020026020010151600014156108a3578e600554815181106101e257634e487b7160e01b600052603260045260246000fd5b60200260200101516004819055508e60055460016102009190611c04565b8151811061021e57634e487b7160e01b600052603260045260246000fd5b602002602001015160038190555060405180604001604052808e6002548151811061025957634e487b7160e01b600052603260045260246000fd5b60200260200101516001600160a01b03166001600160a01b031681526020018e60025460016102889190611c04565b815181106102a657634e487b7160e01b600052603260045260246000fd5b60209081029190910101516001600160a01b031690526102ca90600190600261119a565b508d600054815181106102ed57634e487b7160e01b600052603260045260246000fd5b60200260200101516000141561053d57600160008154811061031f57634e487b7160e01b600052603260045260246000fd5b600091825260209091200154600654600480546040516323b872dd60e01b81526001600160a01b03948516946323b872dd94610362949116923092909101611914565b602060405180830381600087803b15801561037c57600080fd5b505af1158015610390573d6000803e3d6000fd5b505050506040513d601f19601f820116820180604052508101906103b49190611739565b5060016000815481106103d757634e487b7160e01b600052603260045260246000fd5b6000918252602090912001546004805460405163095ea7b360e01b81526001600160a01b039093169263095ea7b39261042892737a250d5630b4cf539739df2c5dacb4c659f2488d92909101611938565b602060405180830381600087803b15801561044257600080fd5b505af1158015610456573d6000803e3d6000fd5b505050506040513d601f19601f8201168201806040525081019061047a9190611739565b50600480546003546006546040516338ed173960e01b8152737a250d5630b4cf539739df2c5dacb4c659f2488d946338ed1739946104cd94909390926001926001600160a01b03909216918e9101611b7c565b600060405180830381600087803b1580156104e757600080fd5b505af11580156104fb573d6000803e3d6000fd5b505050506040513d6000823e601f3d908101601f1916820160405261052391908101906116aa565b5060008054908061053383611c33565b9190505550610878565b8d6000548151811061055f57634e487b7160e01b600052603260045260246000fd5b60200260200101516001141561073f57600160008154811061059157634e487b7160e01b600052603260045260246000fd5b600091825260209091200154600654600480546040516323b872dd60e01b81526001600160a01b03948516946323b872dd946105d4949116923092909101611914565b602060405180830381600087803b1580156105ee57600080fd5b505af1158015610602573d6000803e3d6000fd5b505050506040513d601f19601f820116820180604052508101906106269190611739565b50600160008154811061064957634e487b7160e01b600052603260045260246000fd5b6000918252602090912001546004805460405163095ea7b360e01b81526001600160a01b039093169263095ea7b39261069a92737a250d5630b4cf539739df2c5dacb4c659f2488d92909101611938565b602060405180830381600087803b1580156106b457600080fd5b505af11580156106c8573d6000803e3d6000fd5b505050506040513d601f19601f820116820180604052508101906106ec9190611739565b50600480546003546006546040516318cbafe560e01b8152737a250d5630b4cf539739df2c5dacb4c659f2488d946318cbafe5946104cd94909390926001926001600160a01b03909216918e9101611b7c565b8d6000548151811061076157634e487b7160e01b600052603260045260246000fd5b602002602001015160021415610860576000341161079a5760405162461bcd60e51b815260040161079190611a37565b60405180910390fd5b34600454146107bb5760405162461bcd60e51b815260040161079190611a64565b600354600654604051637ff36ab560e01b8152737a250d5630b4cf539739df2c5dacb4c659f2488d92637ff36ab592349261080a92916001916001600160a01b03909116908d90600401611b47565b6000604051808303818588803b15801561082357600080fd5b505af1158015610837573d6000803e3d6000fd5b50505050506040513d6000823e601f3d908101601f1916820160405261052391908101906116aa565b60405162461bcd60e51b815260040161079190611a94565b6002805490600061088883611c33565b90915550506005805490600061089d83611c33565b91905055505b8f81815181106108c357634e487b7160e01b600052603260045260246000fd5b602002602001015160011415610b4a5760408c01516001600160a01b03166109845773ba12222222228d8ba445958a75a0704d566bf2c86001600160a01b03166352bbbe29348e888f8b6040518663ffffffff1660e01b815260040161092c9493929190611abc565b6020604051808303818588803b15801561094557600080fd5b505af1158015610959573d6000803e3d6000fd5b50505050506040513d601f19601f8201168201806040525081019061097e9190611760565b50610b4a565b60808c01516040808e015160065491516323b872dd60e01b81526001600160a01b03918216926323b872dd926109c39291169030908690600401611914565b602060405180830381600087803b1580156109dd57600080fd5b505af11580156109f1573d6000803e3d6000fd5b505050506040513d601f19601f82011682018060405250810190610a159190611739565b508c604001516001600160a01b031663095ea7b373ba12222222228d8ba445958a75a0704d566bf2c8836040518363ffffffff1660e01b8152600401610a5c929190611938565b602060405180830381600087803b158015610a7657600080fd5b505af1158015610a8a573d6000803e3d6000fd5b505050506040513d601f19601f82011682018060405250810190610aae9190611739565b5073ba12222222228d8ba445958a75a0704d566bf2c86001600160a01b03166352bbbe298e888f8b6040518563ffffffff1660e01b8152600401610af59493929190611abc565b602060405180830381600087803b158015610b0f57600080fd5b505af1158015610b23573d6000803e3d6000fd5b505050506040513d601f19601f82011682018060405250810190610b479190611760565b50505b8f8181518110610b6a57634e487b7160e01b600052603260045260246000fd5b602002602001015160021415610eca5760006001600160a01b031689600081518110610ba657634e487b7160e01b600052603260045260246000fd5b60200260200101516001600160a01b03161415610c5c5760405163945bcec960e01b815273ba12222222228d8ba445958a75a0704d566bf2c89063945bcec9903490610c00908c908f908f908c908f908f90600401611951565b6000604051808303818588803b158015610c1957600080fd5b505af1158015610c2d573d6000803e3d6000fd5b50505050506040513d6000823e601f3d908101601f19168201604052610c5691908101906116aa565b50610eca565b88600081518110610c7d57634e487b7160e01b600052603260045260246000fd5b60200260200101516001600160a01b03166323b872dd600660009054906101000a90046001600160a01b0316308d600081518110610ccb57634e487b7160e01b600052603260045260246000fd5b6020026020010151606001516040518463ffffffff1660e01b8152600401610cf593929190611914565b602060405180830381600087803b158015610d0f57600080fd5b505af1158015610d23573d6000803e3d6000fd5b505050506040513d601f19601f82011682018060405250810190610d479190611739565b5088600081518110610d6957634e487b7160e01b600052603260045260246000fd5b60200260200101516001600160a01b031663095ea7b373ba12222222228d8ba445958a75a0704d566bf2c88c600081518110610db557634e487b7160e01b600052603260045260246000fd5b6020026020010151606001516040518363ffffffff1660e01b8152600401610dde929190611938565b602060405180830381600087803b158015610df857600080fd5b505af1158015610e0c573d6000803e3d6000fd5b505050506040513d601f19601f82011682018060405250810190610e309190611739565b5060405163945bcec960e01b815273ba12222222228d8ba445958a75a0704d566bf2c89063945bcec990610e72908b908e908e908b908e908e90600401611951565b600060405180830381600087803b158015610e8c57600080fd5b505af1158015610ea0573d6000803e3d6000fd5b505050506040513d6000823e601f3d908101601f19168201604052610ec891908101906116aa565b505b80610ed481611c33565b915050610187565b508e600081518110610efe57634e487b7160e01b600052603260045260246000fd5b602002602001015160001415610f5d57610f588e600081518110610f3257634e487b7160e01b600052603260045260246000fd5b6020026020010151828486600660009054906101000a90046001600160a01b0316611026565b610ffd565b8e600081518110610f7e57634e487b7160e01b600052603260045260246000fd5b602002602001015160011415610faf5760808b0151600654610f5891908390859087906001600160a01b0316611026565b610ffd89600081518110610fd357634e487b7160e01b600052603260045260246000fd5b602002602001015160600151828486600660009054906101000a90046001600160a01b0316611026565b505060008080556002819055600381905560048190556005555050505050505050505050505050565b60006001600160a01b03831673c02aaa39b223fe8d0a0e5c4f27ead9083c756cc21461111c576040516370a0823160e01b815285906001600160a01b038516906370a082319061107a9086906004016118c7565b60206040518083038186803b15801561109257600080fd5b505afa1580156110a6573d6000803e3d6000fd5b505050506040513d601f19601f820116820180604052508101906110ca9190611760565b6110d49190611c1c565b90507fd7b3ca57441764ac2d947c271990b2059ef1fa0f350eac51fcb7fdd11bfb8eb482858589854260405161110f969594939291906118db565b60405180910390a161116b565b611127853331611c1c565b90507fd7b3ca57441764ac2d947c271990b2059ef1fa0f350eac51fcb7fdd11bfb8eb4828585898542604051611162969594939291906118db565b60405180910390a15b505050505050565b60408051608081018252600080825260208201819052918101829052606081019190915290565b8280548282559060005260206000209081019282156111ef579160200282015b828111156111ef57825182546001600160a01b0319166001600160a01b039091161782556020909201916001909101906111ba565b506111fb9291506111ff565b5090565b5b808211156111fb5760008155600101611200565b600082601f830112611224578081fd5b8135602061123961123483611be1565b611bb8565b8281528181019085830183850287018401881015611255578586fd5b855b8581101561127c57813561126a81611c7a565b84529284019290840190600101611257565b5090979650505050505050565b600082601f830112611299578081fd5b813560206112a961123483611be1565b82815281810190858301838502870184018810156112c5578586fd5b855b8581101561127c578135845292840192908401906001016112c7565b600082601f8301126112f3578081fd5b8135602061130361123483611be1565b82815281810190858301855b8581101561127c578135880160a080601f19838d0301121561132f578889fd5b604080518281016001600160401b03828210818311171561135257611352611c64565b8184528a8601358352838601358b8401526060915081860135848401526080935083860135828401528486013594508085111561138d578c8dfd5b505061139d8d8a858701016113b8565b9181019190915286525050928401929084019060010161130f565b600082601f8301126113c8578081fd5b81356001600160401b038111156113e1576113e1611c64565b6113f4601f8201601f1916602001611bb8565b818152846020838601011115611408578283fd5b816020850160208301379081016020019190915292915050565b803561142d81611c7a565b919050565b80356002811061142d57600080fd5b600060c08284031215611452578081fd5b60405160c081016001600160401b03828210818311171561147557611475611c64565b816040528293508435835261148c60208601611432565b602084015261149d60408601611422565b60408401526114ae60608601611422565b60608401526080850135608084015260a08501359150808211156114d157600080fd5b506114de858286016113b8565b60a0830152505092915050565b6000806000806000806000806000806000806101808d8f03121561150d578788fd5b6001600160401b038d351115611521578788fd5b61152e8e8e358f01611214565b9b506001600160401b0360208e01351115611547578788fd5b6115578e60208f01358f01611289565b9a506001600160401b0360408e01351115611570578788fd5b6115808e60408f01358f01611289565b99506001600160401b0360608e01351115611599578788fd5b6115a98e60608f01358f01611289565b98506001600160401b0360808e013511156115c2578788fd5b6115d28e60808f01358f01611214565b97506001600160401b0360a08e013511156115eb578687fd5b6115fb8e60a08f01358f01611441565b965060c08d013595506001600160401b0360e08e0135111561161b578485fd5b61162b8e60e08f01358f016112e3565b94506001600160401b036101008e01351115611645578384fd5b6116568e6101008f01358f01611214565b93506116656101208e01611432565b92506001600160401b036101408e0135111561167f578081fd5b6116908e6101408f01358f01611289565b91506101608d013590509295989b509295989b509295989b565b600060208083850312156116bc578182fd5b82516001600160401b038111156116d1578283fd5b8301601f810185136116e1578283fd5b80516116ef61123482611be1565b818152838101908385018584028501860189101561170b578687fd5b8694505b8385101561172d57805183526001949094019391850191850161170f565b50979650505050505050565b60006020828403121561174a578081fd5b81518015158114611759578182fd5b9392505050565b600060208284031215611771578081fd5b5051919050565b6000815480845260208085019450838352808320835b838110156117b35781546001600160a01b03168752958201956001918201910161178e565b509495945050505050565b6000815180845260208085019450808401835b838110156117b35781516001600160a01b0316875295820195908201906001016117d1565b6000815180845260208085019450808401835b838110156117b357815187529582019590820190600101611809565b60008151808452815b8181101561184a5760208185018101518683018201520161182e565b8181111561185b5782602083870101525b50601f01601f19169290920160200192915050565b6002811061188e57634e487b7160e01b600052602160045260246000fd5b9052565b80516001600160a01b039081168352602080830151151590840152604080830151909116908301526060908101511515910152565b6001600160a01b0391909116815260200190565b6001600160a01b03968716815294861660208601529290941660408401526060830152608082019290925260a081019190915260c00190565b6001600160a01b039384168152919092166020820152604081019190915260600190565b6001600160a01b03929092168252602082015260400190565b6000610120808301611963848b611870565b602084810192909252885190819052610140808501928281028601909101918a8201855b828110156119ea5787850361013f190186528151805186528481015185870152604080820151908701526060808201519087015260809081015160a0918701829052906119d681880183611825565b978601979650505090830190600101611987565b505050508381036040850152611a0081896117be565b915050611a106060840187611892565b82810360e0840152611a2281866117f6565b91505082610100830152979650505050505050565b60208082526013908201527224b73b30b634b21022ba341030b6b7bab73a1760691b604082015260600190565b60208082526016908201527524b73b30b634b21034b7383aba1030b6b7bab73a399760511b604082015260600190565b6020808252600e908201526d34b73b30b634b21037b83a34b7b760911b604082015260600190565b600060e08252855160e08301526020860151611adc610100840182611870565b5060408601516001600160a01b03908116610120840152606087015116610140830152608086015161016083015260a086015160c0610180840152611b256101a0840182611825565b915050611b356020830186611892565b60a082019390935260c0015292915050565b600085825260806020830152611b606080830186611778565b6001600160a01b03949094166040830152506060015292915050565b600086825285602083015260a06040830152611b9b60a0830186611778565b6001600160a01b0394909416606083015250608001529392505050565b6040518181016001600160401b0381118282101715611bd957611bd9611c64565b604052919050565b60006001600160401b03821115611bfa57611bfa611c64565b5060209081020190565b60008219821115611c1757611c17611c4e565b500190565b600082821015611c2e57611c2e611c4e565b500390565b6000600019821415611c4757611c47611c4e565b5060010190565b634e487b7160e01b600052601160045260246000fd5b634e487b7160e01b600052604160045260246000fd5b6001600160a01b0381168114611c8f57600080fd5b5056fea2646970667358221220032c13156433331d5728769afa3543d92cd304c611e983117951f71d7afb517c64736f6c63430008000033",
  "linkReferences": {},
  "deployedLinkReferences": {}
}